{
  "contracts/HighScoreRecorder.sol": {
    "HighScoreRecorder": {
      "abi": [
        {
          "inputs": [],
          "name": "getNewRecord",
          "outputs": [
            {
              "internalType": "uint256",
              "name": "",
              "type": "uint256"
            }
          ],
          "stateMutability": "view",
          "type": "function"
        },
        {
          "inputs": [],
          "name": "record",
          "outputs": [
            {
              "internalType": "uint256",
              "name": "",
              "type": "uint256"
            }
          ],
          "stateMutability": "view",
          "type": "function"
        },
        {
          "inputs": [
            {
              "internalType": "uint256",
              "name": "_record",
              "type": "uint256"
            }
          ],
          "name": "setNewRecord",
          "outputs": [],
          "stateMutability": "nonpayable",
          "type": "function"
        }
      ],
      "evm": {
        "bytecode": {
          "linkReferences": {},
          "object": "608060405234801561001057600080fd5b5060c28061001f6000396000f3fe6080604052348015600f57600080fd5b5060043610603c5760003560e01c8063266cf109146041578063539c5afd14605957806384ccfcca14605f575b600080fd5b6047607b565b60408051918252519081900360200190f35b60476081565b607960048036036020811015607357600080fd5b50356087565b005b60005481565b60005490565b60005556fea2646970667358221220b95b6bfd9f1dd200f1ac985b48fbff536310f3c718ea5dfc7fd02c0612568f7364736f6c63430007030033",
          "opcodes": "PUSH1 0x80 PUSH1 0x40 MSTORE CALLVALUE DUP1 ISZERO PUSH2 0x10 JUMPI PUSH1 0x0 DUP1 REVERT JUMPDEST POP PUSH1 0xC2 DUP1 PUSH2 0x1F PUSH1 0x0 CODECOPY PUSH1 0x0 RETURN INVALID PUSH1 0x80 PUSH1 0x40 MSTORE CALLVALUE DUP1 ISZERO PUSH1 0xF JUMPI PUSH1 0x0 DUP1 REVERT JUMPDEST POP PUSH1 0x4 CALLDATASIZE LT PUSH1 0x3C JUMPI PUSH1 0x0 CALLDATALOAD PUSH1 0xE0 SHR DUP1 PUSH4 0x266CF109 EQ PUSH1 0x41 JUMPI DUP1 PUSH4 0x539C5AFD EQ PUSH1 0x59 JUMPI DUP1 PUSH4 0x84CCFCCA EQ PUSH1 0x5F JUMPI JUMPDEST PUSH1 0x0 DUP1 REVERT JUMPDEST PUSH1 0x47 PUSH1 0x7B JUMP JUMPDEST PUSH1 0x40 DUP1 MLOAD SWAP2 DUP3 MSTORE MLOAD SWAP1 DUP2 SWAP1 SUB PUSH1 0x20 ADD SWAP1 RETURN JUMPDEST PUSH1 0x47 PUSH1 0x81 JUMP JUMPDEST PUSH1 0x79 PUSH1 0x4 DUP1 CALLDATASIZE SUB PUSH1 0x20 DUP2 LT ISZERO PUSH1 0x73 JUMPI PUSH1 0x0 DUP1 REVERT JUMPDEST POP CALLDATALOAD PUSH1 0x87 JUMP JUMPDEST STOP JUMPDEST PUSH1 0x0 SLOAD DUP2 JUMP JUMPDEST PUSH1 0x0 SLOAD SWAP1 JUMP JUMPDEST PUSH1 0x0 SSTORE JUMP INVALID LOG2 PUSH5 0x6970667358 0x22 SLT KECCAK256 0xB9 JUMPDEST PUSH12 0xFD9F1DD200F1AC985B48FBFF MSTORE8 PUSH4 0x10F3C718 0xEA 0x5D 0xFC PUSH32 0xD02C0612568F7364736F6C634300070300330000000000000000000000000000 "
        },
        "methodIdentifiers": {
          "getNewRecord()": "539c5afd",
          "record()": "266cf109",
          "setNewRecord(uint256)": "84ccfcca"
        }
      }
    }
  }
}