{
  "_format": "hh-sol-artifact-1",
  "contractName": "HighScoreRecorder",
  "sourceName": "contracts/HighScoreRecorder.sol",
  "abi": [
    {
      "inputs": [],
      "name": "getNewRecord",
      "outputs": [
        {
          "internalType": "uint256",
          "name": "",
          "type": "uint256"
        }
      ],
      "stateMutability": "view",
      "type": "function"
    },
    {
      "inputs": [],
      "name": "record",
      "outputs": [
        {
          "internalType": "uint256",
          "name": "",
          "type": "uint256"
        }
      ],
      "stateMutability": "view",
      "type": "function"
    },
    {
      "inputs": [
        {
          "internalType": "uint256",
          "name": "_record",
          "type": "uint256"
        }
      ],
      "name": "setNewRecord",
      "outputs": [],
      "stateMutability": "nonpayable",
      "type": "function"
    }
  ],
  "bytecode": "0x608060405234801561001057600080fd5b5060cf8061001f6000396000f3fe6080604052348015600f57600080fd5b5060043610603c5760003560e01c8063266cf109146041578063539c5afd14605957806384ccfcca14605f575b600080fd5b6047607b565b60408051918252519081900360200190f35b60476081565b607960048036036020811015607357600080fd5b50356087565b005b60005481565b60005490565b80600054101560965760008190555b5056fea2646970667358221220ddd1846af911dcc803f0d6316aacf478b5211501a1f0136b271b7dd68478db4964736f6c63430007030033",
  "linkReferences": {},
  "deployedLinkReferences": {}
}